{
  "address": "0xb27c655b719C58E158132fa56d9b27ec51fFc459",
  "abi": [
    {
      "inputs": [
        {
          "internalType": "uint256",
          "name": "_lockupPeriod",
          "type": "uint256"
        },
        {
          "internalType": "uint256",
          "name": "_snapshotBlockNumber",
          "type": "uint256"
        },
        {
          "internalType": "bytes",
          "name": "_snapshotBlockHeader",
          "type": "bytes"
        }
      ],
      "stateMutability": "nonpayable",
      "type": "constructor"
    },
    {
      "anonymous": false,
      "inputs": [
        {
          "indexed": true,
          "internalType": "address",
          "name": "_owner",
          "type": "address"
        },
        {
          "indexed": true,
          "internalType": "address",
          "name": "_spender",
          "type": "address"
        },
        {
          "indexed": false,
          "internalType": "uint256",
          "name": "_value",
          "type": "uint256"
        }
      ],
      "name": "Approval",
      "type": "event"
    },
    {
      "anonymous": false,
      "inputs": [
        {
          "indexed": true,
          "internalType": "address",
          "name": "_owner",
          "type": "address"
        },
        {
          "indexed": false,
          "internalType": "uint256",
          "name": "_value",
          "type": "uint256"
        }
      ],
      "name": "Claimed",
      "type": "event"
    },
    {
      "anonymous": false,
      "inputs": [
        {
          "indexed": true,
          "internalType": "address",
          "name": "_owner",
          "type": "address"
        },
        {
          "indexed": true,
          "internalType": "address",
          "name": "_slasher",
          "type": "address"
        },
        {
          "indexed": false,
          "internalType": "uint256",
          "name": "_value",
          "type": "uint256"
        }
      ],
      "name": "Slashed",
      "type": "event"
    },
    {
      "anonymous": false,
      "inputs": [
        {
          "indexed": true,
          "internalType": "address",
          "name": "_from",
          "type": "address"
        },
        {
          "indexed": true,
          "internalType": "address",
          "name": "_to",
          "type": "address"
        },
        {
          "indexed": false,
          "internalType": "uint256",
          "name": "_value",
          "type": "uint256"
        }
      ],
      "name": "Transfer",
      "type": "event"
    },
    {
      "inputs": [
        {
          "internalType": "address",
          "name": "_owner",
          "type": "address"
        },
        {
          "internalType": "address",
          "name": "_spender",
          "type": "address"
        }
      ],
      "name": "allowance",
      "outputs": [
        {
          "internalType": "uint256",
          "name": "",
          "type": "uint256"
        }
      ],
      "stateMutability": "view",
      "type": "function"
    },
    {
      "inputs": [
        {
          "internalType": "address",
          "name": "",
          "type": "address"
        },
        {
          "internalType": "address",
          "name": "",
          "type": "address"
        }
      ],
      "name": "allowed",
      "outputs": [
        {
          "internalType": "uint256",
          "name": "",
          "type": "uint256"
        }
      ],
      "stateMutability": "view",
      "type": "function"
    },
    {
      "inputs": [
        {
          "internalType": "address",
          "name": "_spender",
          "type": "address"
        },
        {
          "internalType": "uint256",
          "name": "_value",
          "type": "uint256"
        }
      ],
      "name": "approve",
      "outputs": [
        {
          "internalType": "bool",
          "name": "",
          "type": "bool"
        }
      ],
      "stateMutability": "nonpayable",
      "type": "function"
    },
    {
      "inputs": [
        {
          "internalType": "address",
          "name": "_owner",
          "type": "address"
        }
      ],
      "name": "balanceOf",
      "outputs": [
        {
          "internalType": "uint256",
          "name": "",
          "type": "uint256"
        }
      ],
      "stateMutability": "view",
      "type": "function"
    },
    {
      "inputs": [
        {
          "internalType": "address",
          "name": "",
          "type": "address"
        }
      ],
      "name": "balances",
      "outputs": [
        {
          "internalType": "uint256",
          "name": "",
          "type": "uint256"
        }
      ],
      "stateMutability": "view",
      "type": "function"
    },
    {
      "inputs": [
        {
          "internalType": "address",
          "name": "_owner",
          "type": "address"
        },
        {
          "internalType": "bytes",
          "name": "_proof",
          "type": "bytes"
        }
      ],
      "name": "claim",
      "outputs": [
        {
          "internalType": "bool",
          "name": "",
          "type": "bool"
        }
      ],
      "stateMutability": "nonpayable",
      "type": "function"
    },
    {
      "inputs": [
        {
          "internalType": "address",
          "name": "",
          "type": "address"
        }
      ],
      "name": "claimed",
      "outputs": [
        {
          "internalType": "bool",
          "name": "",
          "type": "bool"
        }
      ],
      "stateMutability": "view",
      "type": "function"
    },
    {
      "inputs": [],
      "name": "decimals",
      "outputs": [
        {
          "internalType": "uint256",
          "name": "",
          "type": "uint256"
        }
      ],
      "stateMutability": "view",
      "type": "function"
    },
    {
      "inputs": [],
      "name": "lockupEndTime",
      "outputs": [
        {
          "internalType": "uint256",
          "name": "",
          "type": "uint256"
        }
      ],
      "stateMutability": "view",
      "type": "function"
    },
    {
      "inputs": [],
      "name": "name",
      "outputs": [
        {
          "internalType": "string",
          "name": "",
          "type": "string"
        }
      ],
      "stateMutability": "view",
      "type": "function"
    },
    {
      "inputs": [
        {
          "internalType": "bytes",
          "name": "_encodedEIP155Tx",
          "type": "bytes"
        }
      ],
      "name": "slash",
      "outputs": [
        {
          "internalType": "bool",
          "name": "",
          "type": "bool"
        }
      ],
      "stateMutability": "nonpayable",
      "type": "function"
    },
    {
      "inputs": [
        {
          "internalType": "address",
          "name": "",
          "type": "address"
        }
      ],
      "name": "slashed",
      "outputs": [
        {
          "internalType": "bool",
          "name": "",
          "type": "bool"
        }
      ],
      "stateMutability": "view",
      "type": "function"
    },
    {
      "inputs": [],
      "name": "snapshotBlockHash",
      "outputs": [
        {
          "internalType": "bytes32",
          "name": "",
          "type": "bytes32"
        }
      ],
      "stateMutability": "view",
      "type": "function"
    },
    {
      "inputs": [],
      "name": "snapshotBlockNumber",
      "outputs": [
        {
          "internalType": "uint256",
          "name": "",
          "type": "uint256"
        }
      ],
      "stateMutability": "view",
      "type": "function"
    },
    {
      "inputs": [],
      "name": "snapshotStateRoot",
      "outputs": [
        {
          "internalType": "bytes32",
          "name": "",
          "type": "bytes32"
        }
      ],
      "stateMutability": "view",
      "type": "function"
    },
    {
      "inputs": [],
      "name": "symbol",
      "outputs": [
        {
          "internalType": "string",
          "name": "",
          "type": "string"
        }
      ],
      "stateMutability": "view",
      "type": "function"
    },
    {
      "inputs": [],
      "name": "totalSupply",
      "outputs": [
        {
          "internalType": "uint256",
          "name": "",
          "type": "uint256"
        }
      ],
      "stateMutability": "view",
      "type": "function"
    },
    {
      "inputs": [
        {
          "internalType": "address",
          "name": "_to",
          "type": "address"
        },
        {
          "internalType": "uint256",
          "name": "_value",
          "type": "uint256"
        }
      ],
      "name": "transfer",
      "outputs": [
        {
          "internalType": "bool",
          "name": "",
          "type": "bool"
        }
      ],
      "stateMutability": "nonpayable",
      "type": "function"
    },
    {
      "inputs": [
        {
          "internalType": "address",
          "name": "_from",
          "type": "address"
        },
        {
          "internalType": "address",
          "name": "_to",
          "type": "address"
        },
        {
          "internalType": "uint256",
          "name": "_value",
          "type": "uint256"
        }
      ],
      "name": "transferFrom",
      "outputs": [
        {
          "internalType": "bool",
          "name": "",
          "type": "bool"
        }
      ],
      "stateMutability": "nonpayable",
      "type": "function"
    }
  ],
  "transactionHash": "0x3f8061784fc3d28f810322d79baf52eb1a1e1875fb7764472f9aa855e5a00373",
  "args": [
    0,
    24000447,
    {
      "0": 249,
      "1": 2,
      "2": 39,
      "3": 160,
      "4": 237,
      "5": 209,
      "6": 31,
      "7": 133,
      "8": 101,
      "9": 74,
      "10": 93,
      "11": 134,
      "12": 72,
      "13": 101,
      "14": 156,
      "15": 202,
      "16": 217,
      "17": 58,
      "18": 32,
      "19": 103,
      "20": 19,
      "21": 69,
      "22": 93,
      "23": 197,
      "24": 217,
      "25": 227,
      "26": 26,
      "27": 55,
      "28": 147,
      "29": 89,
      "30": 159,
      "31": 65,
      "32": 89,
      "33": 128,
      "34": 178,
      "35": 93,
      "36": 160,
      "37": 29,
      "38": 204,
      "39": 77,
      "40": 232,
      "41": 222,
      "42": 199,
      "43": 93,
      "44": 122,
      "45": 171,
      "46": 133,
      "47": 181,
      "48": 103,
      "49": 182,
      "50": 204,
      "51": 212,
      "52": 26,
      "53": 211,
      "54": 18,
      "55": 69,
      "56": 27,
      "57": 148,
      "58": 138,
      "59": 116,
      "60": 19,
      "61": 240,
      "62": 161,
      "63": 66,
      "64": 253,
      "65": 64,
      "66": 212,
      "67": 147,
      "68": 71,
      "69": 148,
      "70": 0,
      "71": 0,
      "72": 0,
      "73": 0,
      "74": 0,
      "75": 0,
      "76": 0,
      "77": 0,
      "78": 0,
      "79": 0,
      "80": 0,
      "81": 0,
      "82": 0,
      "83": 0,
      "84": 0,
      "85": 0,
      "86": 0,
      "87": 0,
      "88": 0,
      "89": 0,
      "90": 160,
      "91": 224,
      "92": 140,
      "93": 34,
      "94": 10,
      "95": 198,
      "96": 171,
      "97": 65,
      "98": 70,
      "99": 22,
      "100": 206,
      "101": 92,
      "102": 142,
      "103": 229,
      "104": 88,
      "105": 237,
      "106": 244,
      "107": 162,
      "108": 60,
      "109": 82,
      "110": 169,
      "111": 182,
      "112": 58,
      "113": 82,
      "114": 15,
      "115": 27,
      "116": 27,
      "117": 119,
      "118": 3,
      "119": 133,
      "120": 70,
      "121": 151,
      "122": 24,
      "123": 160,
      "124": 86,
      "125": 232,
      "126": 31,
      "127": 23,
      "128": 27,
      "129": 204,
      "130": 85,
      "131": 166,
      "132": 255,
      "133": 131,
      "134": 69,
      "135": 230,
      "136": 146,
      "137": 192,
      "138": 248,
      "139": 110,
      "140": 91,
      "141": 72,
      "142": 224,
      "143": 27,
      "144": 153,
      "145": 108,
      "146": 173,
      "147": 192,
      "148": 1,
      "149": 98,
      "150": 47,
      "151": 181,
      "152": 227,
      "153": 99,
      "154": 180,
      "155": 33,
      "156": 160,
      "157": 86,
      "158": 232,
      "159": 31,
      "160": 23,
      "161": 27,
      "162": 204,
      "163": 85,
      "164": 166,
      "165": 255,
      "166": 131,
      "167": 69,
      "168": 230,
      "169": 146,
      "170": 192,
      "171": 248,
      "172": 110,
      "173": 91,
      "174": 72,
      "175": 224,
      "176": 27,
      "177": 153,
      "178": 108,
      "179": 173,
      "180": 192,
      "181": 1,
      "182": 98,
      "183": 47,
      "184": 181,
      "185": 227,
      "186": 99,
      "187": 180,
      "188": 33,
      "189": 185,
      "190": 1,
      "191": 0,
      "192": 0,
      "193": 0,
      "194": 0,
      "195": 0,
      "196": 0,
      "197": 0,
      "198": 0,
      "199": 0,
      "200": 0,
      "201": 0,
      "202": 0,
      "203": 0,
      "204": 0,
      "205": 0,
      "206": 0,
      "207": 0,
      "208": 0,
      "209": 0,
      "210": 0,
      "211": 0,
      "212": 0,
      "213": 0,
      "214": 0,
      "215": 0,
      "216": 0,
      "217": 0,
      "218": 0,
      "219": 0,
      "220": 0,
      "221": 0,
      "222": 0,
      "223": 0,
      "224": 0,
      "225": 0,
      "226": 0,
      "227": 0,
      "228": 0,
      "229": 0,
      "230": 0,
      "231": 0,
      "232": 0,
      "233": 0,
      "234": 0,
      "235": 0,
      "236": 0,
      "237": 0,
      "238": 0,
      "239": 0,
      "240": 0,
      "241": 0,
      "242": 0,
      "243": 0,
      "244": 0,
      "245": 0,
      "246": 0,
      "247": 0,
      "248": 0,
      "249": 0,
      "250": 0,
      "251": 0,
      "252": 0,
      "253": 0,
      "254": 0,
      "255": 0,
      "256": 0,
      "257": 0,
      "258": 0,
      "259": 0,
      "260": 0,
      "261": 0,
      "262": 0,
      "263": 0,
      "264": 0,
      "265": 0,
      "266": 0,
      "267": 0,
      "268": 0,
      "269": 0,
      "270": 0,
      "271": 0,
      "272": 0,
      "273": 0,
      "274": 0,
      "275": 0,
      "276": 0,
      "277": 0,
      "278": 0,
      "279": 0,
      "280": 0,
      "281": 0,
      "282": 0,
      "283": 0,
      "284": 0,
      "285": 0,
      "286": 0,
      "287": 0,
      "288": 0,
      "289": 0,
      "290": 0,
      "291": 0,
      "292": 0,
      "293": 0,
      "294": 0,
      "295": 0,
      "296": 0,
      "297": 0,
      "298": 0,
      "299": 0,
      "300": 0,
      "301": 0,
      "302": 0,
      "303": 0,
      "304": 0,
      "305": 0,
      "306": 0,
      "307": 0,
      "308": 0,
      "309": 0,
      "310": 0,
      "311": 0,
      "312": 0,
      "313": 0,
      "314": 0,
      "315": 0,
      "316": 0,
      "317": 0,
      "318": 0,
      "319": 0,
      "320": 0,
      "321": 0,
      "322": 0,
      "323": 0,
      "324": 0,
      "325": 0,
      "326": 0,
      "327": 0,
      "328": 0,
      "329": 0,
      "330": 0,
      "331": 0,
      "332": 0,
      "333": 0,
      "334": 0,
      "335": 0,
      "336": 0,
      "337": 0,
      "338": 0,
      "339": 0,
      "340": 0,
      "341": 0,
      "342": 0,
      "343": 0,
      "344": 0,
      "345": 0,
      "346": 0,
      "347": 0,
      "348": 0,
      "349": 0,
      "350": 0,
      "351": 0,
      "352": 0,
      "353": 0,
      "354": 0,
      "355": 0,
      "356": 0,
      "357": 0,
      "358": 0,
      "359": 0,
      "360": 0,
      "361": 0,
      "362": 0,
      "363": 0,
      "364": 0,
      "365": 0,
      "366": 0,
      "367": 0,
      "368": 0,
      "369": 0,
      "370": 0,
      "371": 0,
      "372": 0,
      "373": 0,
      "374": 0,
      "375": 0,
      "376": 0,
      "377": 0,
      "378": 0,
      "379": 0,
      "380": 0,
      "381": 0,
      "382": 0,
      "383": 0,
      "384": 0,
      "385": 0,
      "386": 0,
      "387": 0,
      "388": 0,
      "389": 0,
      "390": 0,
      "391": 0,
      "392": 0,
      "393": 0,
      "394": 0,
      "395": 0,
      "396": 0,
      "397": 0,
      "398": 0,
      "399": 0,
      "400": 0,
      "401": 0,
      "402": 0,
      "403": 0,
      "404": 0,
      "405": 0,
      "406": 0,
      "407": 0,
      "408": 0,
      "409": 0,
      "410": 0,
      "411": 0,
      "412": 0,
      "413": 0,
      "414": 0,
      "415": 0,
      "416": 0,
      "417": 0,
      "418": 0,
      "419": 0,
      "420": 0,
      "421": 0,
      "422": 0,
      "423": 0,
      "424": 0,
      "425": 0,
      "426": 0,
      "427": 0,
      "428": 0,
      "429": 0,
      "430": 0,
      "431": 0,
      "432": 0,
      "433": 0,
      "434": 0,
      "435": 0,
      "436": 0,
      "437": 0,
      "438": 0,
      "439": 0,
      "440": 0,
      "441": 0,
      "442": 0,
      "443": 0,
      "444": 0,
      "445": 0,
      "446": 0,
      "447": 0,
      "448": 144,
      "449": 255,
      "450": 255,
      "451": 255,
      "452": 255,
      "453": 255,
      "454": 255,
      "455": 255,
      "456": 255,
      "457": 255,
      "458": 255,
      "459": 255,
      "460": 255,
      "461": 255,
      "462": 255,
      "463": 255,
      "464": 253,
      "465": 132,
      "466": 1,
      "467": 110,
      "468": 55,
      "469": 191,
      "470": 131,
      "471": 190,
      "472": 188,
      "473": 32,
      "474": 131,
      "475": 24,
      "476": 228,
      "477": 105,
      "478": 132,
      "479": 96,
      "480": 86,
      "481": 108,
      "482": 36,
      "483": 156,
      "484": 219,
      "485": 131,
      "486": 3,
      "487": 0,
      "488": 0,
      "489": 140,
      "490": 79,
      "491": 112,
      "492": 101,
      "493": 110,
      "494": 69,
      "495": 116,
      "496": 104,
      "497": 101,
      "498": 114,
      "499": 101,
      "500": 117,
      "501": 109,
      "502": 134,
      "503": 49,
      "504": 46,
      "505": 52,
      "506": 52,
      "507": 46,
      "508": 48,
      "509": 130,
      "510": 108,
      "511": 105,
      "512": 160,
      "513": 0,
      "514": 0,
      "515": 0,
      "516": 0,
      "517": 0,
      "518": 0,
      "519": 0,
      "520": 0,
      "521": 0,
      "522": 0,
      "523": 0,
      "524": 0,
      "525": 0,
      "526": 0,
      "527": 0,
      "528": 0,
      "529": 0,
      "530": 0,
      "531": 0,
      "532": 0,
      "533": 0,
      "534": 0,
      "535": 0,
      "536": 0,
      "537": 0,
      "538": 0,
      "539": 0,
      "540": 0,
      "541": 0,
      "542": 0,
      "543": 0,
      "544": 0,
      "545": 136,
      "546": 0,
      "547": 0,
      "548": 0,
      "549": 0,
      "550": 0,
      "551": 0,
      "552": 0,
      "553": 0
    }
  ],
  "solcInputHash": "10529fe9554a7b7e327c07310d09186e",
  "bytecode": "0x60806040523480156200001157600080fd5b50604051620047e8380380620047e8833981810160405260608110156200003757600080fd5b810190808051906020019092919080519060200190929190805160405193929190846401000000008211156200006c57600080fd5b838201915060208201858111156200008357600080fd5b8251866001820283011164010000000082111715620000a157600080fd5b8083526020830192505050908051906020019080838360005b83811015620000d7578082015181840152602081019050620000ba565b50505050905090810190601f168015620001055780820380516001836020036101000a031916815260200191505b5060405250505082420160058190555081600681905550814060078190555060006200013c826200017960201b620016c21760201c565b905062000169816003815181106200015057fe5b6020026020010151620001a360201b620016dc1760201c565b6008819055505050505062000997565b60606200019c62000190836200030160201b60201c565b6200033160201b60201c565b9050919050565b600060218260000151111562000221576040517f08c379a000000000000000000000000000000000000000000000000000000000815260040180806020018281038252601a8152602001807f496e76616c696420524c5020627974657333322076616c75652e00000000000081525060200191505060405180910390fd5b600080600062000237856200053860201b60201c565b925092509250600060018111156200024b57fe5b8160018111156200025857fe5b14620002cc576040517f08c379a000000000000000000000000000000000000000000000000000000000815260040180806020018281038252601a8152602001807f496e76616c696420524c5020627974657333322076616c75652e00000000000081525060200191505060405180910390fd5b60008386602001510190506000815190506020841015620002f457836020036101000a810490505b8095505050505050919050565b6200030b6200097d565b600060208301905060405180604001604052808451815260200182815250915050919050565b606060008062000347846200053860201b60201c565b92505091506001808111156200035957fe5b8160018111156200036657fe5b14620003da576040517f08c379a00000000000000000000000000000000000000000000000000000000081526004018080602001828103825260178152602001807f496e76616c696420524c50206c6973742076616c75652e00000000000000000081525060200191505060405180910390fd5b6000602067ffffffffffffffff81118015620003f557600080fd5b506040519080825280602002602001820160405280156200043357816020015b6200041f6200097d565b815260200190600190039081620004155790505b5090506000808490505b8660000151811015620005285760208210620004a5576040517f08c379a000000000000000000000000000000000000000000000000000000000815260040180806020018281038252602a815260200180620047be602a913960400191505060405180910390fd5b600080620004d96040518060400160405280858c60000151038152602001858c60200151018152506200053860201b60201c565b509150915060405180604001604052808383018152602001848b60200151018152508585815181106200050857fe5b60200260200101819052506001840193508082018301925050506200043d565b8183528295505050505050919050565b600080600080846000015111620005b7576040517f08c379a00000000000000000000000000000000000000000000000000000000081526004018080602001828103825260188152602001807f524c50206974656d2063616e6e6f74206265206e756c6c2e000000000000000081525060200191505060405180910390fd5b6000846020015190506000815160001a9050607f8111620005e657600060016000945094509450505062000976565b60b78111620006855760006080820390508087600001511162000671576040517f08c379a00000000000000000000000000000000000000000000000000000000081526004018080602001828103825260198152602001807f496e76616c696420524c502073686f727420737472696e672e0000000000000081525060200191505060405180910390fd5b600181600095509550955050505062000976565b60bf8111620007b557600060b7820390508087600001511162000710576040517f08c379a000000000000000000000000000000000000000000000000000000000815260040180806020018281038252601f8152602001807f496e76616c696420524c50206c6f6e6720737472696e67206c656e6774682e0081525060200191505060405180910390fd5b6000816020036101000a60018501510490508082018860000151116200079e576040517f08c379a00000000000000000000000000000000000000000000000000000000081526004018080602001828103825260188152602001807f496e76616c696420524c50206c6f6e6720737472696e672e000000000000000081525060200191505060405180910390fd5b816001018160009650965096505050505062000976565b60f781116200085457600060c0820390508087600001511162000840576040517f08c379a00000000000000000000000000000000000000000000000000000000081526004018080602001828103825260178152602001807f496e76616c696420524c502073686f7274206c6973742e00000000000000000081525060200191505060405180910390fd5b600181600195509550955050505062000976565b600060f78203905080876000015111620008d6576040517f08c379a000000000000000000000000000000000000000000000000000000000815260040180806020018281038252601d8152602001807f496e76616c696420524c50206c6f6e67206c697374206c656e6774682e00000081525060200191505060405180910390fd5b6000816020036101000a600185015104905080820188600001511162000964576040517f08c379a00000000000000000000000000000000000000000000000000000000081526004018080602001828103825260168152602001807f496e76616c696420524c50206c6f6e67206c6973742e0000000000000000000081525060200191505060405180910390fd5b81600101816001965096509650505050505b9193909250565b604051806040016040528060008152602001600081525090565b613e1780620009a76000396000f3fe608060405234801561001057600080fd5b50600436106101215760003560e01c80635e47655f116100ad578063bb1757cf11610071578063bb1757cf14610643578063c884ef8314610734578063c91030ab1461078e578063dd62ed3e146107ac578063f25e71081461082457610121565b80635e47655f146103d957806370a08231146104aa5780638bcfa6651461050257806395d89b411461055c578063a9059cbb146105df57610121565b8063266d7bda116100f4578063266d7bda146102af57806327e235e3146102cd578063313ce567146103255780633c2ed25a146103435780635c6581651461036157610121565b806306fdde0314610126578063095ea7b3146101a957806318160ddd1461020d57806323b872dd1461022b575b600080fd5b61012e610842565b6040518080602001828103825283818151815260200191508051906020019080838360005b8381101561016e578082015181840152602081019050610153565b50505050905090810190601f16801561019b5780820380516001836020036101000a031916815260200191505b509250505060405180910390f35b6101f5600480360360408110156101bf57600080fd5b81019080803573ffffffffffffffffffffffffffffffffffffffff1690602001909291908035906020019092919050505061087b565b60405180821515815260200191505060405180910390f35b61021561096d565b6040518082815260200191505060405180910390f35b6102976004803603606081101561024157600080fd5b81019080803573ffffffffffffffffffffffffffffffffffffffff169060200190929190803573ffffffffffffffffffffffffffffffffffffffff16906020019092919080359060200190929190505050610973565b60405180821515815260200191505060405180910390f35b6102b7610cd0565b6040518082815260200191505060405180910390f35b61030f600480360360208110156102e357600080fd5b81019080803573ffffffffffffffffffffffffffffffffffffffff169060200190929190505050610cd6565b6040518082815260200191505060405180910390f35b61032d610cee565b6040518082815260200191505060405180910390f35b61034b610cf3565b6040518082815260200191505060405180910390f35b6103c36004803603604081101561037757600080fd5b81019080803573ffffffffffffffffffffffffffffffffffffffff169060200190929190803573ffffffffffffffffffffffffffffffffffffffff169060200190929190505050610cf9565b6040518082815260200191505060405180910390f35b610492600480360360208110156103ef57600080fd5b810190808035906020019064010000000081111561040c57600080fd5b82018360208201111561041e57600080fd5b8035906020019184600183028401116401000000008311171561044057600080fd5b91908080601f016020809104026020016040519081016040528093929190818152602001838380828437600081840152601f19601f820116905080830192505050505050509192919290505050610d1e565b60405180821515815260200191505060405180910390f35b6104ec600480360360208110156104c057600080fd5b81019080803573ffffffffffffffffffffffffffffffffffffffff169060200190929190505050611091565b6040518082815260200191505060405180910390f35b6105446004803603602081101561051857600080fd5b81019080803573ffffffffffffffffffffffffffffffffffffffff1690602001909291905050506110da565b60405180821515815260200191505060405180910390f35b6105646110fa565b6040518080602001828103825283818151815260200191508051906020019080838360005b838110156105a4578082015181840152602081019050610589565b50505050905090810190601f1680156105d15780820380516001836020036101000a031916815260200191505b509250505060405180910390f35b61062b600480360360408110156105f557600080fd5b81019080803573ffffffffffffffffffffffffffffffffffffffff16906020019092919080359060200190929190505050611133565b60405180821515815260200191505060405180910390f35b61071c6004803603604081101561065957600080fd5b81019080803573ffffffffffffffffffffffffffffffffffffffff1690602001909291908035906020019064010000000081111561069657600080fd5b8201836020820111156106a857600080fd5b803590602001918460018302840111640100000000831117156106ca57600080fd5b91908080601f016020809104026020016040519081016040528093929190818152602001838380828437600081840152601f19601f820116905080830192505050505050509192919290505050611330565b60405180821515815260200191505060405180910390f35b6107766004803603602081101561074a57600080fd5b81019080803573ffffffffffffffffffffffffffffffffffffffff16906020019092919050505061160f565b60405180821515815260200191505060405180910390f35b61079661162f565b6040518082815260200191505060405180910390f35b61080e600480360360408110156107c257600080fd5b81019080803573ffffffffffffffffffffffffffffffffffffffff169060200190929190803573ffffffffffffffffffffffffffffffffffffffff169060200190929190505050611635565b6040518082815260200191505060405180910390f35b61082c6116bc565b6040518082815260200191505060405180910390f35b6040518060400160405280600881526020017f4d6178692045544800000000000000000000000000000000000000000000000081525081565b600081600260003373ffffffffffffffffffffffffffffffffffffffff1673ffffffffffffffffffffffffffffffffffffffff16815260200190815260200160002060008573ffffffffffffffffffffffffffffffffffffffff1673ffffffffffffffffffffffffffffffffffffffff168152602001908152602001600020819055508273ffffffffffffffffffffffffffffffffffffffff163373ffffffffffffffffffffffffffffffffffffffff167f8c5be1e5ebec7d5bd14f71427d1e84f3dd0314c0f7b2291e5b200ac8c7c3b925846040518082815260200191505060405180910390a36001905092915050565b60005481565b600060055442116109cf576040517f08c379a000000000000000000000000000000000000000000000000000000000815260040180806020018281038252602b815260200180613cef602b913960400191505060405180910390fd5b81600260008673ffffffffffffffffffffffffffffffffffffffff1673ffffffffffffffffffffffffffffffffffffffff16815260200190815260200160002060003373ffffffffffffffffffffffffffffffffffffffff1673ffffffffffffffffffffffffffffffffffffffff168152602001908152602001600020541015610aa4576040517f08c379a0000000000000000000000000000000000000000000000000000000008152600401808060200182810382526022815260200180613c226022913960400191505060405180910390fd5b81600160008673ffffffffffffffffffffffffffffffffffffffff1673ffffffffffffffffffffffffffffffffffffffff168152602001908152602001600020541015610b3c576040517f08c379a000000000000000000000000000000000000000000000000000000000815260040180806020018281038252604d815260200180613d5b604d913960600191505060405180910390fd5b81600160008573ffffffffffffffffffffffffffffffffffffffff1673ffffffffffffffffffffffffffffffffffffffff1681526020019081526020016000206000828254019250508190555081600160008673ffffffffffffffffffffffffffffffffffffffff1673ffffffffffffffffffffffffffffffffffffffff1681526020019081526020016000206000828254039250508190555081600260008673ffffffffffffffffffffffffffffffffffffffff1673ffffffffffffffffffffffffffffffffffffffff16815260200190815260200160002060003373ffffffffffffffffffffffffffffffffffffffff1673ffffffffffffffffffffffffffffffffffffffff168152602001908152602001600020600082825403925050819055508273ffffffffffffffffffffffffffffffffffffffff168473ffffffffffffffffffffffffffffffffffffffff167fddf252ad1be2c89b69c2b068fc378daa952ba7f163c4a11628f55a4df523b3ef846040518082815260200191505060405180910390a3600190509392505050565b60055481565b60016020528060005260406000206000915090505481565b601281565b60075481565b6002602052816000526040600020602052806000526040600020600091509150505481565b600080610d2c83600161182d565b90506000610d3982611a39565b905060011515600360008373ffffffffffffffffffffffffffffffffffffffff1673ffffffffffffffffffffffffffffffffffffffff16815260200190815260200160002060009054906101000a900460ff16151514610de4576040517f08c379a0000000000000000000000000000000000000000000000000000000008152600401808060200182810382526039815260200180613c906039913960400191505060405180910390fd5b60001515600460008373ffffffffffffffffffffffffffffffffffffffff1673ffffffffffffffffffffffffffffffffffffffff16815260200190815260200160002060009054906101000a900460ff16151514610e8d576040517f08c379a000000000000000000000000000000000000000000000000000000000815260040180806020018281038252602e815260200180613bf4602e913960400191505060405180910390fd5b6000600160008373ffffffffffffffffffffffffffffffffffffffff1673ffffffffffffffffffffffffffffffffffffffff1681526020019081526020016000205490506001600460008473ffffffffffffffffffffffffffffffffffffffff1673ffffffffffffffffffffffffffffffffffffffff16815260200190815260200160002060006101000a81548160ff02191690831515021790555080600160003373ffffffffffffffffffffffffffffffffffffffff1673ffffffffffffffffffffffffffffffffffffffff168152602001908152602001600020600082825401925050819055506000600160008473ffffffffffffffffffffffffffffffffffffffff1673ffffffffffffffffffffffffffffffffffffffff168152602001908152602001600020819055503373ffffffffffffffffffffffffffffffffffffffff168273ffffffffffffffffffffffffffffffffffffffff167fddf252ad1be2c89b69c2b068fc378daa952ba7f163c4a11628f55a4df523b3ef836040518082815260200191505060405180910390a33373ffffffffffffffffffffffffffffffffffffffff168273ffffffffffffffffffffffffffffffffffffffff167f96e0041f14ae401fab2384e3c29da20cb0263ef760c47847db1f13403cea654c836040518082815260200191505060405180910390a360019350505050919050565b6000600160008373ffffffffffffffffffffffffffffffffffffffff1673ffffffffffffffffffffffffffffffffffffffff168152602001908152602001600020549050919050565b60046020528060005260406000206000915054906101000a900460ff1681565b6040518060400160405280600481526020017f6d4554480000000000000000000000000000000000000000000000000000000081525081565b6000600554421161118f576040517f08c379a000000000000000000000000000000000000000000000000000000000815260040180806020018281038252602b815260200180613cef602b913960400191505060405180910390fd5b81600160003373ffffffffffffffffffffffffffffffffffffffff1673ffffffffffffffffffffffffffffffffffffffff168152602001908152602001600020541015611227576040517f08c379a0000000000000000000000000000000000000000000000000000000008152600401808060200182810382526041815260200180613d1a6041913960600191505060405180910390fd5b81600160003373ffffffffffffffffffffffffffffffffffffffff1673ffffffffffffffffffffffffffffffffffffffff1681526020019081526020016000206000828254039250508190555081600160008573ffffffffffffffffffffffffffffffffffffffff1673ffffffffffffffffffffffffffffffffffffffff168152602001908152602001600020600082825401925050819055508273ffffffffffffffffffffffffffffffffffffffff163373ffffffffffffffffffffffffffffffffffffffff167fddf252ad1be2c89b69c2b068fc378daa952ba7f163c4a11628f55a4df523b3ef846040518082815260200191505060405180910390a36001905092915050565b6000801515600360008573ffffffffffffffffffffffffffffffffffffffff1673ffffffffffffffffffffffffffffffffffffffff16815260200190815260200160002060009054906101000a900460ff161515146113da576040517f08c379a000000000000000000000000000000000000000000000000000000000815260040180806020018281038252603a815260200180613da8603a913960400191505060405180910390fd5b60008061142285604051602001808273ffffffffffffffffffffffffffffffffffffffff1660601b815260140191505060405160208183030381529060405285600854611aaa565b915091506001151582151514611483576040517f08c379a0000000000000000000000000000000000000000000000000000000008152600401808060200182810382526022815260200180613c446022913960400191505060405180910390fd5b600061148e826116c2565b905060006114af826001815181106114a257fe5b6020026020010151611ad3565b90506001600360008973ffffffffffffffffffffffffffffffffffffffff1673ffffffffffffffffffffffffffffffffffffffff16815260200190815260200160002060006101000a81548160ff02191690831515021790555080600160008973ffffffffffffffffffffffffffffffffffffffff1673ffffffffffffffffffffffffffffffffffffffff168152602001908152602001600020819055508673ffffffffffffffffffffffffffffffffffffffff16600073ffffffffffffffffffffffffffffffffffffffff167fddf252ad1be2c89b69c2b068fc378daa952ba7f163c4a11628f55a4df523b3ef836040518082815260200191505060405180910390a38673ffffffffffffffffffffffffffffffffffffffff167fd8138f8a3f377c5259ca548e70e4c2de94f129f5a11036a15b69513cba2b426a826040518082815260200191505060405180910390a2600194505050505092915050565b60036020528060005260406000206000915054906101000a900460ff1681565b60085481565b6000600260008473ffffffffffffffffffffffffffffffffffffffff1673ffffffffffffffffffffffffffffffffffffffff16815260200190815260200160002060008373ffffffffffffffffffffffffffffffffffffffff1673ffffffffffffffffffffffffffffffffffffffff16815260200190815260200160002054905092915050565b60065481565b60606116d56116d083611ae8565b611b16565b9050919050565b6000602182600001511115611759576040517f08c379a000000000000000000000000000000000000000000000000000000000815260040180806020018281038252601a8152602001807f496e76616c696420524c5020627974657333322076616c75652e00000000000081525060200191505060405180910390fd5b600080600061176785611d00565b9250925092506000600181111561177a57fe5b81600181111561178657fe5b146117f9576040517f08c379a000000000000000000000000000000000000000000000000000000000815260040180806020018281038252601a8152602001807f496e76616c696420524c5020627974657333322076616c75652e00000000000081525060200191505060405180910390fd5b6000838660200151019050600081519050602084101561182057836020036101000a810490505b8095505050505050919050565b61183561389a565b6000611840846116c2565b905060006118618260068151811061185457fe5b6020026020010151611ad3565b905060006023856002028360ff160303905060028160ff16106118b9576040517f08c379a00000000000000000000000000000000000000000000000000000000081526004016118b090613ae1565b60405180910390fd5b6000806118d9856003815181106118cc57fe5b6020026020010151612136565b51149050604051806101800160405280611906866000815181106118f957fe5b6020026020010151611ad3565b81526020016119288660018151811061191b57fe5b6020026020010151611ad3565b815260200161194a8660028151811061193d57fe5b6020026020010151611ad3565b815260200161196c8660038151811061195f57fe5b60200260200101516121f1565b73ffffffffffffffffffffffffffffffffffffffff1681526020016119a48660048151811061199757fe5b6020026020010151611ad3565b81526020016119c6866005815181106119b957fe5b6020026020010151612136565b81526020018460ff1681526020016119f1866007815181106119e457fe5b60200260200101516116dc565b8152602001611a1386600881518110611a0657fe5b60200260200101516116dc565b81526020018781526020018360ff16815260200182151581525094505050505092915050565b60006001611a4683612294565b601b846101400151018460e0015185610100015160405160008152602001604052604051611a779493929190613a9c565b6020604051602081039080840390855afa158015611a99573d6000803e3d6000fd5b505050602060405103519050919050565b600060606000611ab9866122b8565b9050611ac68186866122e8565b9250925050935093915050565b6000611ade826116dc565b60001c9050919050565b611af061391f565b600060208301905060405180604001604052808451815260200182815250915050919050565b6060600080611b2484611d00565b9250509150600180811115611b3557fe5b816001811115611b4157fe5b14611bb4576040517f08c379a00000000000000000000000000000000000000000000000000000000081526004018080602001828103825260178152602001807f496e76616c696420524c50206c6973742076616c75652e00000000000000000081525060200191505060405180910390fd5b6000602067ffffffffffffffff81118015611bce57600080fd5b50604051908082528060200260200182016040528015611c0857816020015b611bf561391f565b815260200190600190039081611bed5790505b5090506000808490505b8660000151811015611cf05760208210611c77576040517f08c379a000000000000000000000000000000000000000000000000000000000815260040180806020018281038252602a815260200180613c66602a913960400191505060405180910390fd5b600080611ca36040518060400160405280858c60000151038152602001858c6020015101815250611d00565b509150915060405180604001604052808383018152602001848b6020015101815250858581518110611cd157fe5b6020026020010181905250600184019350808201830192505050611c12565b8183528295505050505050919050565b600080600080846000015111611d7e576040517f08c379a00000000000000000000000000000000000000000000000000000000081526004018080602001828103825260188152602001807f524c50206974656d2063616e6e6f74206265206e756c6c2e000000000000000081525060200191505060405180910390fd5b6000846020015190506000815160001a9050607f8111611dab57600060016000945094509450505061212f565b60b78111611e4757600060808203905080876000015111611e34576040517f08c379a00000000000000000000000000000000000000000000000000000000081526004018080602001828103825260198152602001807f496e76616c696420524c502073686f727420737472696e672e0000000000000081525060200191505060405180910390fd5b600181600095509550955050505061212f565b60bf8111611f7357600060b78203905080876000015111611ed0576040517f08c379a000000000000000000000000000000000000000000000000000000000815260040180806020018281038252601f8152602001807f496e76616c696420524c50206c6f6e6720737472696e67206c656e6774682e0081525060200191505060405180910390fd5b6000816020036101000a6001850151049050808201886000015111611f5d576040517f08c379a00000000000000000000000000000000000000000000000000000000081526004018080602001828103825260188152602001807f496e76616c696420524c50206c6f6e6720737472696e672e000000000000000081525060200191505060405180910390fd5b816001018160009650965096505050505061212f565b60f7811161200f57600060c08203905080876000015111611ffc576040517f08c379a00000000000000000000000000000000000000000000000000000000081526004018080602001828103825260178152602001807f496e76616c696420524c502073686f7274206c6973742e00000000000000000081525060200191505060405180910390fd5b600181600195509550955050505061212f565b600060f78203905080876000015111612090576040517f08c379a000000000000000000000000000000000000000000000000000000000815260040180806020018281038252601d8152602001807f496e76616c696420524c50206c6f6e67206c697374206c656e6774682e00000081525060200191505060405180910390fd5b6000816020036101000a600185015104905080820188600001511161211d576040517f08c379a00000000000000000000000000000000000000000000000000000000081526004018080602001828103825260168152602001807f496e76616c696420524c50206c6f6e67206c6973742e0000000000000000000081525060200191505060405180910390fd5b81600101816001965096509650505050505b9193909250565b6060600080600061214685611d00565b9250925092506000600181111561215957fe5b81600181111561216557fe5b146121d8576040517f08c379a00000000000000000000000000000000000000000000000000000000081526004018080602001828103825260188152602001807f496e76616c696420524c502062797465732076616c75652e000000000000000081525060200191505060405180910390fd5b6121e7856020015184846123e4565b9350505050919050565b6000600182600001511415612209576000905061228f565b6015826000015114612283576040517f08c379a000000000000000000000000000000000000000000000000000000000815260040180806020018281038252601a8152602001807f496e76616c696420524c5020616464726573732076616c75652e00000000000081525060200191505060405180910390fd5b61228c82611ad3565b90505b919050565b60006122aa6000836124be90919063ffffffff16565b805190602001209050919050565b606081805190602001206040516020016122d29190613a42565b6040516020818303038152906040529050919050565b6000606060006122f785612747565b90506000806000612309848a89612826565b925092509250600080835114905080806123205750815b612392576040517f08c379a000000000000000000000000000000000000000000000000000000000815260040180806020018281038252601a8152602001807f50726f76696465642070726f6f6620697320696e76616c69642e00000000000081525060200191505060405180910390fd5b6000816123ae57604051806020016040528060008152506123ce565b6123cd8660018703815181106123c057fe5b6020026020010151612d25565b5b9050818197509750505050505050935093915050565b606060008267ffffffffffffffff811180156123ff57600080fd5b506040519080825280601f01601f1916602001820160405280156124325781602001600182028036833780820191505090505b50905060008151141561244857809150506124b7565b60008486019050600060208301905060005b6020868161246457fe5b048110156124895782518252602083019250602082019150808060010191505061245a565b50600060016020878161249857fe5b066020036101000a039050808251168119845116178252839450505050505b9392505050565b60606000600967ffffffffffffffff811180156124da57600080fd5b5060405190808252806020026020018201604052801561250e57816020015b60608152602001906001900390816124f95790505b50905061251e8460000151612d56565b8160008151811061252b57fe5b60200260200101819052506125438460200151612d56565b8160018151811061255057fe5b60200260200101819052506125688460400151612d56565b8160028151811061257557fe5b6020026020010181905250836101600151156125c0576125a360405180602001604052806000815250612d70565b816003815181106125b057fe5b60200260200101819052506125e6565b6125cd8460600151612de7565b816003815181106125da57fe5b60200260200101819052505b6125f38460800151612d56565b8160048151811061260057fe5b60200260200101819052506126188460a00151612d70565b8160058151811061262557fe5b602002602001018190525082156126ae576126468460c0015160ff16612d56565b8160068151811061265357fe5b602002602001018190525061266b8460e00151612e18565b8160078151811061267857fe5b6020026020010181905250612691846101000151612e18565b8160088151811061269e57fe5b6020026020010181905250612735565b6126bc846101200151612d56565b816006815181106126c957fe5b60200260200101819052506126ec60405180602001604052806000815250612d70565b816007815181106126f957fe5b602002602001018190525061271c60405180602001604052806000815250612d70565b8160088151811061272957fe5b60200260200101819052505b61273e81612e49565b91505092915050565b60606000612754836116c2565b90506000815167ffffffffffffffff8111801561277057600080fd5b506040519080825280602002602001820160405280156127aa57816020015b612797613939565b81526020019060019003908161278f5790505b50905060005b825181101561281b5760006127d78483815181106127ca57fe5b6020026020010151612136565b905060405180604001604052808281526020016127f3836116c2565b81525083838151811061280257fe5b60200260200101819052505080806001019150506127b0565b508092505050919050565b6000606060008060009050600061283c87612e8d565b9050600086905060008061284e613939565b60005b8c51811015612cd5578c818151811061286657fe5b6020026020010151915082840193506001870196506000841415612909578482600001518051906020012014612904576040517f08c379a00000000000000000000000000000000000000000000000000000000081526004018080602001828103825260118152602001807f496e76616c696420726f6f74206861736800000000000000000000000000000081525060200191505060405180910390fd5b612a1e565b60208260000151511061299b578482600001518051906020012014612996576040517f08c379a000000000000000000000000000000000000000000000000000000000815260040180806020018281038252601b8152602001807f496e76616c6964206c6172676520696e7465726e616c2068617368000000000081525060200191505060405180910390fd5b612a1d565b846129a98360000151612feb565b14612a1c576040517f08c379a000000000000000000000000000000000000000000000000000000000815260040180806020018281038252601a8152602001807f496e76616c696420696e7465726e616c206e6f6465206861736800000000000081525060200191505060405180910390fd5b5b5b60016010018260200151511415612a90578551841415612a3d57612cd5565b6000868581518110612a4b57fe5b602001015160f81c60f81b60f81c9050600083602001518260ff1681518110612a7057fe5b60200260200101519050612a8381613037565b9650600194505050612cc8565b60028260200151511415612c5a576000612aa983613075565b9050600081600081518110612aba57fe5b602001015160f81c60f81b60f81c9050600060028260ff1681612ad957fe5b0660020390506000612aee848360ff166130a7565b90506000612afc8b8a6130a7565b90506000612b0a83836130e3565b9050600260ff168560ff161480612b275750600360ff168560ff16145b15612b7b57808351148015612b3c5750808251145b15612b4757808a0199505b608060f81b7effffffffffffffffffffffffffffffffffffffffffffffffffffffffffffff19169a50505050505050612cd5565b600060ff168560ff161480612b965750600160ff168560ff16145b15612c09576000811415612bd857608060f81b7effffffffffffffffffffffffffffffffffffffffffffffffffffffffffffff19169a50505050505050612cd5565b612bf98860200151600181518110612bec57fe5b6020026020010151613037565b9a50809850505050505050612cc8565b6040517f08c379a0000000000000000000000000000000000000000000000000000000008152600401808060200182810382526026815260200180613cc96026913960400191505060405180910390fd5b6040517f08c379a000000000000000000000000000000000000000000000000000000000815260040180806020018281038252601d8152602001807f526563656976656420616e20756e706172736561626c65206e6f64652e00000081525060200191505060405180910390fd5b8080600101915050612851565b506000608060f81b7effffffffffffffffffffffffffffffffffffffffffffffffffffffffffffff19168514905086612d0e87866130a7565b829950995099505050505050505093509350939050565b6060612d4f826020015160018460200151510381518110612d4257fe5b6020026020010151612136565b9050919050565b6060612d69612d6483613192565b612d70565b9050919050565b60608060018351148015612da15750608083600081518110612d8e57fe5b602001015160f81c60f81b60f81c60ff16105b15612dae57829050612dde565b612dba835160806132e8565b83604051602001612dcc929190613a5d565b60405160208183030381529060405290505b80915050919050565b6060612e1182604051602001612dfd9190613a27565b604051602081830303815290604052612d70565b9050919050565b6060612e4282604051602001612e2e9190613a42565b604051602081830303815290604052612d70565b9050919050565b60606000612e56836134ca565b9050612e64815160c06132e8565b81604051602001612e76929190613a5d565b604051602081830303815290604052915050919050565b60606000600283510267ffffffffffffffff81118015612eac57600080fd5b506040519080825280601f01601f191660200182016040528015612edf5781602001600182028036833780820191505090505b50905060005b8351811015612fe1576004848281518110612efc57fe5b602001015160f81c60f81b7effffffffffffffffffffffffffffffffffffffffffffffffffffffffffffff1916901c826002830281518110612f3a57fe5b60200101907effffffffffffffffffffffffffffffffffffffffffffffffffffffffffffff1916908160001a9053506010848281518110612f7757fe5b602001015160f81c60f81b60f81c60ff1681612f8f57fe5b0660f81b826001600284020181518110612fa557fe5b60200101907effffffffffffffffffffffffffffffffffffffffffffffffffffffffffffff1916908160001a9053508080600101915050612ee5565b5080915050919050565b60006020825110156130095760006020830151905080915050613032565b81806020019051602081101561301e57600080fd5b810190808051906020019092919050505090505b919050565b600060606020836000015110156130585761305183613626565b9050613064565b61306183612136565b90505b61306d81612feb565b915050919050565b60606130a061309b836020015160008151811061308e57fe5b6020026020010151612136565b612e8d565b9050919050565b606060008284510314156130cc576040518060200160405280600081525090506130dd565b6130da838384865103613638565b90505b92915050565b600080600090505b8084511180156130fb5750808351115b8015613176575082818151811061310e57fe5b602001015160f81c60f81b7effffffffffffffffffffffffffffffffffffffffffffffffffffffffffffff191684828151811061314757fe5b602001015160f81c60f81b7effffffffffffffffffffffffffffffffffffffffffffffffffffffffffffff1916145b156131885780806001019150506130eb565b8091505092915050565b60606000826040516020016131a79190613a81565b604051602081830303815290604052905060005b602081101561321957600060f81b8282815181106131d557fe5b602001015160f81c60f81b7effffffffffffffffffffffffffffffffffffffffffffffffffffffffffffff19161461320c57613219565b80806001019150506131bb565b60008160200367ffffffffffffffff8111801561323557600080fd5b506040519080825280601f01601f1916602001820160405280156132685781602001600182028036833780820191505090505b50905060005b81518110156132dc5783838060010194508151811061328957fe5b602001015160f81c60f81b8282815181106132a057fe5b60200101907effffffffffffffffffffffffffffffffffffffffffffffffffffffffffffff1916908160001a905350808060010191505061326e565b50809350505050919050565b606080603884101561338957600167ffffffffffffffff8111801561330c57600080fd5b506040519080825280601f01601f19166020018201604052801561333f5781602001600182028036833780820191505090505b50905082840160f81b8160008151811061335557fe5b60200101907effffffffffffffffffffffffffffffffffffffffffffffffffffffffffffff1916908160001a9053506134c0565b600080600190505b600081878161339c57fe5b04146133b657818060010192505061010081029050613391565b6001820167ffffffffffffffff811180156133d057600080fd5b506040519080825280601f01601f1916602001820160405280156134035781602001600182028036833780820191505090505b50925060378583010160f81b8360008151811061341c57fe5b60200101907effffffffffffffffffffffffffffffffffffffffffffffffffffffffffffff1916908160001a905350600190505b8181116134bd576101008183036101000a878161346957fe5b048161347157fe5b0660f81b83828151811061348157fe5b60200101907effffffffffffffffffffffffffffffffffffffffffffffffffffffffffffff1916908160001a9053508080600101915050613450565b50505b8091505092915050565b606060008251141561352957600067ffffffffffffffff811180156134ee57600080fd5b506040519080825280601f01601f1916602001820160405280156135215781602001600182028036833780820191505090505b509050613621565b600080600090505b83518110156135605783818151811061354657fe5b602002602001015151820191508080600101915050613531565b60008267ffffffffffffffff8111801561357957600080fd5b506040519080825280601f01601f1916602001820160405280156135ac5781602001600182028036833780820191505090505b5090506000602082019050600092505b85518310156136195760008684815181106135d357fe5b6020026020010151905060006020820190506135f183828451613822565b8785815181106135fd57fe5b60200260200101515183019250505082806001019350506135bc565b819450505050505b919050565b60606136318261387d565b9050919050565b606081601f830110156136b3576040517f08c379a000000000000000000000000000000000000000000000000000000000815260040180806020018281038252600e8152602001807f736c6963655f6f766572666c6f7700000000000000000000000000000000000081525060200191505060405180910390fd5b82828401101561372b576040517f08c379a000000000000000000000000000000000000000000000000000000000815260040180806020018281038252600e8152602001807f736c6963655f6f766572666c6f7700000000000000000000000000000000000081525060200191505060405180910390fd5b818301845110156137a4576040517f08c379a00000000000000000000000000000000000000000000000000000000081526004018080602001828103825260118152602001807f736c6963655f6f75744f66426f756e647300000000000000000000000000000081525060200191505060405180910390fd5b60608215600081146137c55760405191506000825260208201604052613816565b6040519150601f8416801560200281840101858101878315602002848b0101015b8183101561380357805183526020830192506020810190506137e6565b50868552601f19601f8301166040525050505b50809150509392505050565b6000839050600083905060008390505b602081106138555781518352602083019250602082019150602081039050613832565b60006001826020036101000a0390508019835116818551168181178652505050505050505050565b60606138938260200151600084600001516123e4565b9050919050565b604051806101800160405280600081526020016000815260200160008152602001600073ffffffffffffffffffffffffffffffffffffffff1681526020016000815260200160608152602001600060ff168152602001600080191681526020016000801916815260200160008152602001600060ff1681526020016000151581525090565b604051806040016040528060008152602001600081525090565b604051806040016040528060608152602001606081525090565b61396461395f82613b28565b613bae565b82525050565b61397381613b3a565b82525050565b61398a61398582613b3a565b613bc0565b82525050565b600061399b82613b01565b6139a58185613b0c565b93506139b5818560208601613b7b565b80840191505092915050565b60006139ce601e83613b17565b91507f4c69625f45495031353554783a20696e76616c696420636861696e20696400006000830152602082019050919050565b613a12613a0d82613b64565b613bdc565b82525050565b613a2181613b6e565b82525050565b6000613a338284613953565b60148201915081905092915050565b6000613a4e8284613979565b60208201915081905092915050565b6000613a698285613990565b9150613a758284613990565b91508190509392505050565b6000613a8d8284613a01565b60208201915081905092915050565b6000608082019050613ab1600083018761396a565b613abe6020830186613a18565b613acb604083018561396a565b613ad8606083018461396a565b95945050505050565b60006020820190508181036000830152613afa816139c1565b9050919050565b600081519050919050565b600081905092915050565b600082825260208201905092915050565b6000613b3382613b44565b9050919050565b6000819050919050565b600073ffffffffffffffffffffffffffffffffffffffff82169050919050565b6000819050919050565b600060ff82169050919050565b60005b83811015613b99578082015181840152602081019050613b7e565b83811115613ba8576000848401525b50505050565b6000613bb982613bca565b9050919050565b6000819050919050565b6000613bd582613be6565b9050919050565b6000819050919050565b60008160601b905091905056fe4554484d617869546f6b656e3a20616464726573732068617320616c7265616479206265656e20736c61736865644554484d617869546f6b656e3a206e6f7420656e6f75676820616c6c6f77616e63654554484d617869546f6b656e3a2062616420657468206d65726b6c652070726f6f6650726f766964656420524c50206c6973742065786365656473206d6178206c697374206c656e6774682e4554484d617869546f6b656e3a2063616e277420736c6173682062656361757365207468652075736572206861736e277420636c61696d656452656365697665642061206e6f6465207769746820616e20756e6b6e6f776e207072656669784554484d617869546f6b656e3a206c6f636b7570206861736e277420656e646564207965742c206e6572644554484d617869546f6b656e3a20796f7520646f6e2774206861766520656e6f7567682062616c616e636520746f206d616b652074686973207472616e736665724554484d617869546f6b656e3a206f776e6572206163636f756e7420646f65736e2774206861766520656e6f7567682062616c616e636520746f206d616b652074686973207472616e736665724554484d617869546f6b656e3a2062616c616e636520666f7220616464726573732068617320616c7265616479206265656e20636c61696d6564a264697066735822122026308732be8e24d51e0bcd20ef97982cdbd2b4d185eb8aeb6cb02aa1c669661464736f6c6343000706003350726f766964656420524c50206c6973742065786365656473206d6178206c697374206c656e6774682e",
  "devdoc": {
    "kind": "dev",
    "methods": {
      "claim(address,bytes)": {
        "params": {
          "_owner": "Address to claim tokens for.",
          "_proof": "RLP-encoded merkle trie inclusion proof for the address's account at the               snapshot block height."
        },
        "returns": {
          "_0": "`true` if the function succeeded."
        }
      },
      "slash(bytes)": {
        "params": {
          "_encodedEIP155Tx": "RLP-encoded signed EIP155 transaction."
        },
        "returns": {
          "_0": "`true` if the slashin' was successful."
        }
      }
    },
    "version": 1
  },
  "userdoc": {
    "kind": "user",
    "methods": {
      "claim(address,bytes)": {
        "notice": "Function for redeeming tokens at a 1:1 ratio to ETH at the snapshot block. If you had 1 ETH (= 10^18 wei) at the snapshot, you have 10^18 tokens. I.e., you have the same amount of tokens. Also allows you to claim on behalf of someone else (*you* do the proof, *they* get the money). Perhaps useful if you want to quickly claim and slash."
      },
      "slash(bytes)": {
        "notice": "Slashes an account based on a signed EIP155 transaction with a chain ID other than 1. Simply provide the encoded signed transaction and be rewarded with the heretic's entire (claimed) balance! Will *not* work if the user you're slashing hasn't claimed a balance yet. But you can also claim on behalf of other users if you want to do some slashin'."
      }
    },
    "version": 1
  },
  "storageLayout": {
    "storage": [
      {
        "astId": 51,
        "contract": "contracts/ETHMaxiToken.sol:ETHMaxiToken",
        "label": "totalSupply",
        "offset": 0,
        "slot": "0",
        "type": "t_uint256"
      },
      {
        "astId": 55,
        "contract": "contracts/ETHMaxiToken.sol:ETHMaxiToken",
        "label": "balances",
        "offset": 0,
        "slot": "1",
        "type": "t_mapping(t_address,t_uint256)"
      },
      {
        "astId": 61,
        "contract": "contracts/ETHMaxiToken.sol:ETHMaxiToken",
        "label": "allowed",
        "offset": 0,
        "slot": "2",
        "type": "t_mapping(t_address,t_mapping(t_address,t_uint256))"
      },
      {
        "astId": 65,
        "contract": "contracts/ETHMaxiToken.sol:ETHMaxiToken",
        "label": "claimed",
        "offset": 0,
        "slot": "3",
        "type": "t_mapping(t_address,t_bool)"
      },
      {
        "astId": 69,
        "contract": "contracts/ETHMaxiToken.sol:ETHMaxiToken",
        "label": "slashed",
        "offset": 0,
        "slot": "4",
        "type": "t_mapping(t_address,t_bool)"
      },
      {
        "astId": 71,
        "contract": "contracts/ETHMaxiToken.sol:ETHMaxiToken",
        "label": "lockupEndTime",
        "offset": 0,
        "slot": "5",
        "type": "t_uint256"
      },
      {
        "astId": 73,
        "contract": "contracts/ETHMaxiToken.sol:ETHMaxiToken",
        "label": "snapshotBlockNumber",
        "offset": 0,
        "slot": "6",
        "type": "t_uint256"
      },
      {
        "astId": 75,
        "contract": "contracts/ETHMaxiToken.sol:ETHMaxiToken",
        "label": "snapshotBlockHash",
        "offset": 0,
        "slot": "7",
        "type": "t_bytes32"
      },
      {
        "astId": 77,
        "contract": "contracts/ETHMaxiToken.sol:ETHMaxiToken",
        "label": "snapshotStateRoot",
        "offset": 0,
        "slot": "8",
        "type": "t_bytes32"
      }
    ],
    "types": {
      "t_address": {
        "encoding": "inplace",
        "label": "address",
        "numberOfBytes": "20"
      },
      "t_bool": {
        "encoding": "inplace",
        "label": "bool",
        "numberOfBytes": "1"
      },
      "t_bytes32": {
        "encoding": "inplace",
        "label": "bytes32",
        "numberOfBytes": "32"
      },
      "t_mapping(t_address,t_bool)": {
        "encoding": "mapping",
        "key": "t_address",
        "label": "mapping(address => bool)",
        "numberOfBytes": "32",
        "value": "t_bool"
      },
      "t_mapping(t_address,t_mapping(t_address,t_uint256))": {
        "encoding": "mapping",
        "key": "t_address",
        "label": "mapping(address => mapping(address => uint256))",
        "numberOfBytes": "32",
        "value": "t_mapping(t_address,t_uint256)"
      },
      "t_mapping(t_address,t_uint256)": {
        "encoding": "mapping",
        "key": "t_address",
        "label": "mapping(address => uint256)",
        "numberOfBytes": "32",
        "value": "t_uint256"
      },
      "t_uint256": {
        "encoding": "inplace",
        "label": "uint256",
        "numberOfBytes": "32"
      }
    }
  }
}